{
  "_format": "hh-sol-artifact-1",
  "contractName": "AuctionHouse",
  "sourceName": "contracts/AuctionHouse.sol",
  "abi": [
    {
      "inputs": [
        {
          "internalType": "address",
          "name": "_admin",
          "type": "address"
        },
        {
          "internalType": "uint256",
          "name": "_fee",
          "type": "uint256"
        },
        {
          "internalType": "contract AuctionHouseCoin",
          "name": "_coin",
          "type": "address"
        }
      ],
      "stateMutability": "nonpayable",
      "type": "constructor"
    },
    {
      "anonymous": false,
      "inputs": [
        {
          "indexed": false,
          "internalType": "uint256",
          "name": "id",
          "type": "uint256"
        }
      ],
      "name": "AuctionCancelled",
      "type": "event"
    },
    {
      "anonymous": false,
      "inputs": [
        {
          "indexed": false,
          "internalType": "uint256",
          "name": "id",
          "type": "uint256"
        }
      ],
      "name": "AuctionCreated",
      "type": "event"
    },
    {
      "anonymous": false,
      "inputs": [
        {
          "indexed": false,
          "internalType": "uint256",
          "name": "id",
          "type": "uint256"
        }
      ],
      "name": "AuctionEnded",
      "type": "event"
    },
    {
      "anonymous": false,
      "inputs": [
        {
          "indexed": false,
          "internalType": "uint256",
          "name": "id",
          "type": "uint256"
        },
        {
          "indexed": false,
          "internalType": "uint256",
          "name": "newBid",
          "type": "uint256"
        }
      ],
      "name": "BidPlaced",
      "type": "event"
    },
    {
      "anonymous": false,
      "inputs": [
        {
          "indexed": false,
          "internalType": "uint256",
          "name": "fee",
          "type": "uint256"
        }
      ],
      "name": "FeeChanged",
      "type": "event"
    },
    {
      "anonymous": false,
      "inputs": [
        {
          "indexed": false,
          "internalType": "uint256",
          "name": "id",
          "type": "uint256"
        }
      ],
      "name": "ItemClaimed",
      "type": "event"
    },
    {
      "anonymous": false,
      "inputs": [
        {
          "indexed": false,
          "internalType": "uint256",
          "name": "id",
          "type": "uint256"
        },
        {
          "indexed": false,
          "internalType": "uint256",
          "name": "newPrice",
          "type": "uint256"
        }
      ],
      "name": "PriceLowered",
      "type": "event"
    },
    {
      "inputs": [
        {
          "internalType": "address",
          "name": "addr",
          "type": "address"
        }
      ],
      "name": "addManager",
      "outputs": [],
      "stateMutability": "nonpayable",
      "type": "function"
    },
    {
      "inputs": [],
      "name": "admin",
      "outputs": [
        {
          "internalType": "address",
          "name": "",
          "type": "address"
        }
      ],
      "stateMutability": "view",
      "type": "function"
    },
    {
      "inputs": [
        {
          "internalType": "uint256",
          "name": "",
          "type": "uint256"
        }
      ],
      "name": "auctions",
      "outputs": [
        {
          "internalType": "address",
          "name": "seller",
          "type": "address"
        },
        {
          "internalType": "address",
          "name": "contractId",
          "type": "address"
        },
        {
          "internalType": "uint256",
          "name": "tokenId",
          "type": "uint256"
        },
        {
          "internalType": "uint256",
          "name": "endTime",
          "type": "uint256"
        },
        {
          "internalType": "uint256",
          "name": "highestBid",
          "type": "uint256"
        },
        {
          "internalType": "address",
          "name": "highestBidder",
          "type": "address"
        },
        {
          "internalType": "bool",
          "name": "archived",
          "type": "bool"
        }
      ],
      "stateMutability": "view",
      "type": "function"
    },
    {
      "inputs": [
        {
          "internalType": "uint256",
          "name": "id",
          "type": "uint256"
        }
      ],
      "name": "cancelAuction",
      "outputs": [],
      "stateMutability": "nonpayable",
      "type": "function"
    },
    {
      "inputs": [
        {
          "internalType": "uint256",
          "name": "id",
          "type": "uint256"
        }
      ],
      "name": "claimItems",
      "outputs": [],
      "stateMutability": "nonpayable",
      "type": "function"
    },
    {
      "inputs": [],
      "name": "collectedFees",
      "outputs": [
        {
          "internalType": "uint256",
          "name": "",
          "type": "uint256"
        }
      ],
      "stateMutability": "view",
      "type": "function"
    },
    {
      "inputs": [
        {
          "internalType": "address",
          "name": "contractAddress",
          "type": "address"
        },
        {
          "internalType": "uint256",
          "name": "tokenId",
          "type": "uint256"
        },
        {
          "internalType": "uint256",
          "name": "startPrice",
          "type": "uint256"
        },
        {
          "internalType": "uint256",
          "name": "endTime",
          "type": "uint256"
        }
      ],
      "name": "createAuction",
      "outputs": [],
      "stateMutability": "nonpayable",
      "type": "function"
    },
    {
      "inputs": [],
      "name": "feeBp",
      "outputs": [
        {
          "internalType": "uint256",
          "name": "",
          "type": "uint256"
        }
      ],
      "stateMutability": "view",
      "type": "function"
    },
    {
      "inputs": [
        {
          "internalType": "uint256",
          "name": "id",
          "type": "uint256"
        }
      ],
      "name": "forceEndAuction",
      "outputs": [],
      "stateMutability": "nonpayable",
      "type": "function"
    },
    {
      "inputs": [
        {
          "internalType": "uint256",
          "name": "id",
          "type": "uint256"
        },
        {
          "internalType": "uint256",
          "name": "newPrice",
          "type": "uint256"
        }
      ],
      "name": "lowerPrice",
      "outputs": [],
      "stateMutability": "nonpayable",
      "type": "function"
    },
    {
      "inputs": [
        {
          "internalType": "address",
          "name": "",
          "type": "address"
        }
      ],
      "name": "managers",
      "outputs": [
        {
          "internalType": "bool",
          "name": "",
          "type": "bool"
        }
      ],
      "stateMutability": "view",
      "type": "function"
    },
    {
      "inputs": [
        {
          "internalType": "uint256",
          "name": "id",
          "type": "uint256"
        },
        {
          "internalType": "uint256",
          "name": "bidAmnt",
          "type": "uint256"
        }
      ],
      "name": "placeBid",
      "outputs": [],
      "stateMutability": "nonpayable",
      "type": "function"
    },
    {
      "inputs": [
        {
          "internalType": "address",
          "name": "addr",
          "type": "address"
        }
      ],
      "name": "removeManager",
      "outputs": [],
      "stateMutability": "nonpayable",
      "type": "function"
    },
    {
      "inputs": [
        {
          "internalType": "address",
          "name": "newAdmin",
          "type": "address"
        }
      ],
      "name": "setAdmin",
      "outputs": [],
      "stateMutability": "nonpayable",
      "type": "function"
    },
    {
      "inputs": [
        {
          "internalType": "uint256",
          "name": "_fee",
          "type": "uint256"
        }
      ],
      "name": "setFee",
      "outputs": [],
      "stateMutability": "nonpayable",
      "type": "function"
    },
    {
      "inputs": [
        {
          "internalType": "uint256",
          "name": "amnt",
          "type": "uint256"
        }
      ],
      "name": "withdrawFees",
      "outputs": [],
      "stateMutability": "nonpayable",
      "type": "function"
    }
  ],
  "bytecode": "0x60806040523480156200001157600080fd5b506040516200443238038062004432833981810160405281019062000037919062000233565b826000806101000a81548173ffffffffffffffffffffffffffffffffffffffff021916908373ffffffffffffffffffffffffffffffffffffffff1602179055506001600560008060009054906101000a900473ffffffffffffffffffffffffffffffffffffffff1673ffffffffffffffffffffffffffffffffffffffff1673ffffffffffffffffffffffffffffffffffffffff16815260200190815260200160002060006101000a81548160ff0219169083151502179055508160018190555080600460006101000a81548173ffffffffffffffffffffffffffffffffffffffff021916908373ffffffffffffffffffffffffffffffffffffffff16021790555060006003819055505050506200028f565b600080fd5b600073ffffffffffffffffffffffffffffffffffffffff82169050919050565b60006200017b826200014e565b9050919050565b6200018d816200016e565b81146200019957600080fd5b50565b600081519050620001ad8162000182565b92915050565b6000819050919050565b620001c881620001b3565b8114620001d457600080fd5b50565b600081519050620001e881620001bd565b92915050565b6000620001fb826200016e565b9050919050565b6200020d81620001ee565b81146200021957600080fd5b50565b6000815190506200022d8162000202565b92915050565b6000806000606084860312156200024f576200024e62000149565b5b60006200025f868287016200019c565b93505060206200027286828701620001d7565b925050604062000285868287016200021c565b9150509250925092565b614193806200029f6000396000f3fe608060405234801561001057600080fd5b50600436106101005760003560e01c80639003adfe11610097578063c973c35911610066578063c973c35914610273578063ca00c5d21461028f578063f851a440146102ab578063fdff9b4d146102c957610100565b80639003adfe146101ff57806396b5a7551461021d578063ac18de4314610239578063c4ed6f581461025557610100565b80635e318e07116100d35780635e318e071461018f57806361beb1d7146101ab57806369fe0e2d146101c7578063704b6c02146101e357610100565b80631648a72d146101055780632d06177a14610121578063571a26a01461013d57806357c90de514610173575b600080fd5b61011f600480360381019061011a9190613143565b6102f9565b005b61013b600480360381019061013691906131e1565b610719565b005b6101576004803603810190610152919061320e565b610802565b60405161016a9796959493929190613274565b60405180910390f35b61018d60048036038101906101889190613143565b6108b1565b005b6101a960048036038101906101a4919061320e565b611077565b005b6101c560048036038101906101c091906132e3565b6112c3565b005b6101e160048036038101906101dc919061320e565b61178a565b005b6101fd60048036038101906101f891906131e1565b6118ab565b005b610207611a4d565b604051610214919061334a565b60405180910390f35b6102376004803603810190610232919061320e565b611a53565b005b610253600480360381019061024e91906131e1565b612186565b005b61025d61226f565b60405161026a919061334a565b60405180910390f35b61028d6004803603810190610288919061320e565b612275565b005b6102a960048036038101906102a4919061320e565b612925565b005b6102b36130a0565b6040516102c09190613365565b60405180910390f35b6102e360048036038101906102de91906131e1565b6130c4565b6040516102f09190613380565b60405180910390f35b8160016000600660008481526020019081526020016000206040518060e00160405290816000820160009054906101000a900473ffffffffffffffffffffffffffffffffffffffff1673ffffffffffffffffffffffffffffffffffffffff1673ffffffffffffffffffffffffffffffffffffffff1681526020016001820160009054906101000a900473ffffffffffffffffffffffffffffffffffffffff1673ffffffffffffffffffffffffffffffffffffffff1673ffffffffffffffffffffffffffffffffffffffff1681526020016002820154815260200160038201548152602001600482015481526020016005820160009054906101000a900473ffffffffffffffffffffffffffffffffffffffff1673ffffffffffffffffffffffffffffffffffffffff1673ffffffffffffffffffffffffffffffffffffffff1681526020016005820160149054906101000a900460ff1615151515815250509050600073ffffffffffffffffffffffffffffffffffffffff16816000015173ffffffffffffffffffffffffffffffffffffffff161415801561049c57508060c00151155b6104db576040517f08c379a00000000000000000000000000000000000000000000000000000000081526004016104d2906133f8565b60405180910390fd5b81158061051757503373ffffffffffffffffffffffffffffffffffffffff16816000015173ffffffffffffffffffffffffffffffffffffffff16145b610556576040517f08c379a000000000000000000000000000000000000000000000000000000000815260040161054d90613464565b60405180910390fd5b6000600660008781526020019081526020016000209050600085116105b0576040517f08c379a00000000000000000000000000000000000000000000000000000000081526004016105a7906134d0565b60405180910390fd5b600073ffffffffffffffffffffffffffffffffffffffff168160050160009054906101000a900473ffffffffffffffffffffffffffffffffffffffff1673ffffffffffffffffffffffffffffffffffffffff1614610643576040517f08c379a000000000000000000000000000000000000000000000000000000000815260040161063a90613562565b60405180910390fd5b42816003015411610689576040517f08c379a0000000000000000000000000000000000000000000000000000000008152600401610680906135f4565b60405180910390fd5b806004015485106106cf576040517f08c379a00000000000000000000000000000000000000000000000000000000081526004016106c690613686565b60405180910390fd5b8481600401819055507fea95946b9f692d6c6f2dd7aa043888276749a18e7119403fcae03cb76924f10586866040516107099291906136a6565b60405180910390a1505050505050565b60008054906101000a900473ffffffffffffffffffffffffffffffffffffffff1673ffffffffffffffffffffffffffffffffffffffff163373ffffffffffffffffffffffffffffffffffffffff16146107a7576040517f08c379a000000000000000000000000000000000000000000000000000000000815260040161079e9061371b565b60405180910390fd5b6001600560008373ffffffffffffffffffffffffffffffffffffffff1673ffffffffffffffffffffffffffffffffffffffff16815260200190815260200160002060006101000a81548160ff02191690831515021790555050565b60066020528060005260406000206000915090508060000160009054906101000a900473ffffffffffffffffffffffffffffffffffffffff16908060010160009054906101000a900473ffffffffffffffffffffffffffffffffffffffff16908060020154908060030154908060040154908060050160009054906101000a900473ffffffffffffffffffffffffffffffffffffffff16908060050160149054906101000a900460ff16905087565b81600080600660008481526020019081526020016000206040518060e00160405290816000820160009054906101000a900473ffffffffffffffffffffffffffffffffffffffff1673ffffffffffffffffffffffffffffffffffffffff1673ffffffffffffffffffffffffffffffffffffffff1681526020016001820160009054906101000a900473ffffffffffffffffffffffffffffffffffffffff1673ffffffffffffffffffffffffffffffffffffffff1673ffffffffffffffffffffffffffffffffffffffff1681526020016002820154815260200160038201548152602001600482015481526020016005820160009054906101000a900473ffffffffffffffffffffffffffffffffffffffff1673ffffffffffffffffffffffffffffffffffffffff1673ffffffffffffffffffffffffffffffffffffffff1681526020016005820160149054906101000a900460ff1615151515815250509050600073ffffffffffffffffffffffffffffffffffffffff16816000015173ffffffffffffffffffffffffffffffffffffffff1614158015610a5357508060c00151155b610a92576040517f08c379a0000000000000000000000000000000000000000000000000000000008152600401610a89906133f8565b60405180910390fd5b811580610ace57503373ffffffffffffffffffffffffffffffffffffffff16816000015173ffffffffffffffffffffffffffffffffffffffff16145b610b0d576040517f08c379a0000000000000000000000000000000000000000000000000000000008152600401610b0490613464565b60405180910390fd5b600060149054906101000a900460ff1615610b5d576040517f08c379a0000000000000000000000000000000000000000000000000000000008152600401610b5490613787565b60405180910390fd5b6001600060146101000a81548160ff021916908315150217905550600060066000878152602001908152602001600020905042816003015411610bd5576040517f08c379a0000000000000000000000000000000000000000000000000000000008152600401610bcc90613819565b60405180910390fd5b84600460009054906101000a900473ffffffffffffffffffffffffffffffffffffffff1673ffffffffffffffffffffffffffffffffffffffff166370a08231336040518263ffffffff1660e01b8152600401610c319190613365565b602060405180830381865afa158015610c4e573d6000803e3d6000fd5b505050506040513d601f19601f82011682018060405250810190610c72919061384e565b1015610cb3576040517f08c379a0000000000000000000000000000000000000000000000000000000008152600401610caa906138ed565b60405180910390fd5b8060040154851180610d255750600073ffffffffffffffffffffffffffffffffffffffff168160050160009054906101000a900473ffffffffffffffffffffffffffffffffffffffff1673ffffffffffffffffffffffffffffffffffffffff16148015610d24575080600401548510155b5b610d64576040517f08c379a0000000000000000000000000000000000000000000000000000000008152600401610d5b90613959565b60405180910390fd5b600073ffffffffffffffffffffffffffffffffffffffff168160050160009054906101000a900473ffffffffffffffffffffffffffffffffffffffff1673ffffffffffffffffffffffffffffffffffffffff1614610f2d57600460009054906101000a900473ffffffffffffffffffffffffffffffffffffffff1673ffffffffffffffffffffffffffffffffffffffff1663095ea7b33083600401546040518363ffffffff1660e01b8152600401610e1d929190613979565b6020604051808303816000875af1158015610e3c573d6000803e3d6000fd5b505050506040513d601f19601f82011682018060405250810190610e6091906139ce565b50600460009054906101000a900473ffffffffffffffffffffffffffffffffffffffff1673ffffffffffffffffffffffffffffffffffffffff166323b872dd308360050160009054906101000a900473ffffffffffffffffffffffffffffffffffffffff1684600401546040518463ffffffff1660e01b8152600401610ee8939291906139fb565b6020604051808303816000875af1158015610f07573d6000803e3d6000fd5b505050506040513d601f19601f82011682018060405250810190610f2b91906139ce565b505b600460009054906101000a900473ffffffffffffffffffffffffffffffffffffffff1673ffffffffffffffffffffffffffffffffffffffff166323b872dd3330886040518463ffffffff1660e01b8152600401610f8c939291906139fb565b6020604051808303816000875af1158015610fab573d6000803e3d6000fd5b505050506040513d601f19601f82011682018060405250810190610fcf91906139ce565b50338160050160006101000a81548173ffffffffffffffffffffffffffffffffffffffff021916908373ffffffffffffffffffffffffffffffffffffffff1602179055508481600401819055507f0fc69407039e8ba8cdd517e2a4cae9dd19697b0a500ff37a2425c59ebc649b31868660405161104d9291906136a6565b60405180910390a15060008060146101000a81548160ff0219169083151502179055505050505050565b600560003373ffffffffffffffffffffffffffffffffffffffff1673ffffffffffffffffffffffffffffffffffffffff16815260200190815260200160002060009054906101000a900460ff16611103576040517f08c379a00000000000000000000000000000000000000000000000000000000081526004016110fa9061371b565b60405180910390fd5b806002541015611148576040517f08c379a000000000000000000000000000000000000000000000000000000000815260040161113f90613aa4565b60405180910390fd5b806002546111569190613af3565b600281905550600460009054906101000a900473ffffffffffffffffffffffffffffffffffffffff1673ffffffffffffffffffffffffffffffffffffffff1663095ea7b330836040518363ffffffff1660e01b81526004016111b9929190613979565b6020604051808303816000875af11580156111d8573d6000803e3d6000fd5b505050506040513d601f19601f820116820180604052508101906111fc91906139ce565b50600460009054906101000a900473ffffffffffffffffffffffffffffffffffffffff1673ffffffffffffffffffffffffffffffffffffffff166323b872dd3060008054906101000a900473ffffffffffffffffffffffffffffffffffffffff16846040518463ffffffff1660e01b815260040161127c939291906139fb565b6020604051808303816000875af115801561129b573d6000803e3d6000fd5b505050506040513d601f19601f820116820180604052508101906112bf91906139ce565b5050565b60008490503373ffffffffffffffffffffffffffffffffffffffff168173ffffffffffffffffffffffffffffffffffffffff16636352211e866040518263ffffffff1660e01b8152600401611318919061334a565b602060405180830381865afa158015611335573d6000803e3d6000fd5b505050506040513d601f19601f820116820180604052508101906113599190613b3c565b73ffffffffffffffffffffffffffffffffffffffff16146113af576040517f08c379a00000000000000000000000000000000000000000000000000000000081526004016113a690613bdb565b60405180910390fd5b3073ffffffffffffffffffffffffffffffffffffffff168173ffffffffffffffffffffffffffffffffffffffff1663081812fc866040518263ffffffff1660e01b81526004016113ff919061334a565b602060405180830381865afa15801561141c573d6000803e3d6000fd5b505050506040513d601f19601f820116820180604052508101906114409190613b3c565b73ffffffffffffffffffffffffffffffffffffffff1614611496576040517f08c379a000000000000000000000000000000000000000000000000000000000815260040161148d90613c6d565b60405180910390fd5b600083116114d9576040517f08c379a00000000000000000000000000000000000000000000000000000000081526004016114d090613cd9565b60405180910390fd5b42821161151b576040517f08c379a000000000000000000000000000000000000000000000000000000000815260040161151290613d45565b60405180910390fd5b8073ffffffffffffffffffffffffffffffffffffffff166323b872dd3330876040518463ffffffff1660e01b8152600401611558939291906139fb565b600060405180830381600087803b15801561157257600080fd5b505af1158015611586573d6000803e3d6000fd5b5050505060006003549050600360008154809291906115a490613d65565b91905055506040518060e001604052803373ffffffffffffffffffffffffffffffffffffffff1681526020018773ffffffffffffffffffffffffffffffffffffffff168152602001868152602001848152602001858152602001600073ffffffffffffffffffffffffffffffffffffffff168152602001600015158152506006600083815260200190815260200160002060008201518160000160006101000a81548173ffffffffffffffffffffffffffffffffffffffff021916908373ffffffffffffffffffffffffffffffffffffffff16021790555060208201518160010160006101000a81548173ffffffffffffffffffffffffffffffffffffffff021916908373ffffffffffffffffffffffffffffffffffffffff16021790555060408201518160020155606082015181600301556080820151816004015560a08201518160050160006101000a81548173ffffffffffffffffffffffffffffffffffffffff021916908373ffffffffffffffffffffffffffffffffffffffff16021790555060c08201518160050160146101000a81548160ff0219169083151502179055509050507f7e0e356457a92dacd3760ddf327a24dd226c6ca01b2cc41a7fd6f28469c7ab9b8160405161177a919061334a565b60405180910390a1505050505050565b600560003373ffffffffffffffffffffffffffffffffffffffff1673ffffffffffffffffffffffffffffffffffffffff16815260200190815260200160002060009054906101000a900460ff16611816576040517f08c379a000000000000000000000000000000000000000000000000000000000815260040161180d9061371b565b60405180910390fd5b6000811015801561182957506127108111155b611868576040517f08c379a000000000000000000000000000000000000000000000000000000000815260040161185f90613e1f565b60405180910390fd5b806001819055507f6bbc57480a46553fa4d156ce702beef5f3ad66303b0ed1a5d4cb44966c6584c36001546040516118a0919061334a565b60405180910390a150565b60008054906101000a900473ffffffffffffffffffffffffffffffffffffffff1673ffffffffffffffffffffffffffffffffffffffff163373ffffffffffffffffffffffffffffffffffffffff1614611939576040517f08c379a00000000000000000000000000000000000000000000000000000000081526004016119309061371b565b60405180910390fd5b6000600560003373ffffffffffffffffffffffffffffffffffffffff1673ffffffffffffffffffffffffffffffffffffffff16815260200190815260200160002060006101000a81548160ff021916908315150217905550806000806101000a81548173ffffffffffffffffffffffffffffffffffffffff021916908373ffffffffffffffffffffffffffffffffffffffff1602179055506001600560008060009054906101000a900473ffffffffffffffffffffffffffffffffffffffff1673ffffffffffffffffffffffffffffffffffffffff1673ffffffffffffffffffffffffffffffffffffffff16815260200190815260200160002060006101000a81548160ff02191690831515021790555050565b60025481565b8060016000600660008481526020019081526020016000206040518060e00160405290816000820160009054906101000a900473ffffffffffffffffffffffffffffffffffffffff1673ffffffffffffffffffffffffffffffffffffffff1673ffffffffffffffffffffffffffffffffffffffff1681526020016001820160009054906101000a900473ffffffffffffffffffffffffffffffffffffffff1673ffffffffffffffffffffffffffffffffffffffff1673ffffffffffffffffffffffffffffffffffffffff1681526020016002820154815260200160038201548152602001600482015481526020016005820160009054906101000a900473ffffffffffffffffffffffffffffffffffffffff1673ffffffffffffffffffffffffffffffffffffffff1673ffffffffffffffffffffffffffffffffffffffff1681526020016005820160149054906101000a900460ff1615151515815250509050600073ffffffffffffffffffffffffffffffffffffffff16816000015173ffffffffffffffffffffffffffffffffffffffff1614158015611bf657508060c00151155b611c35576040517f08c379a0000000000000000000000000000000000000000000000000000000008152600401611c2c906133f8565b60405180910390fd5b811580611c7157503373ffffffffffffffffffffffffffffffffffffffff16816000015173ffffffffffffffffffffffffffffffffffffffff16145b611cb0576040517f08c379a0000000000000000000000000000000000000000000000000000000008152600401611ca790613464565b60405180910390fd5b600060149054906101000a900460ff1615611d00576040517f08c379a0000000000000000000000000000000000000000000000000000000008152600401611cf790613787565b60405180910390fd5b6001600060146101000a81548160ff0219169083151502179055506000600660008681526020019081526020016000206040518060e00160405290816000820160009054906101000a900473ffffffffffffffffffffffffffffffffffffffff1673ffffffffffffffffffffffffffffffffffffffff1673ffffffffffffffffffffffffffffffffffffffff1681526020016001820160009054906101000a900473ffffffffffffffffffffffffffffffffffffffff1673ffffffffffffffffffffffffffffffffffffffff1673ffffffffffffffffffffffffffffffffffffffff1681526020016002820154815260200160038201548152602001600482015481526020016005820160009054906101000a900473ffffffffffffffffffffffffffffffffffffffff1673ffffffffffffffffffffffffffffffffffffffff1673ffffffffffffffffffffffffffffffffffffffff1681526020016005820160149054906101000a900460ff16151515158152505090504281606001511180611eba5750600073ffffffffffffffffffffffffffffffffffffffff168160a0015173ffffffffffffffffffffffffffffffffffffffff16145b611ef9576040517f08c379a0000000000000000000000000000000000000000000000000000000008152600401611ef090613eb1565b60405180910390fd5b6000816020015190508073ffffffffffffffffffffffffffffffffffffffff166323b872dd303385604001516040518463ffffffff1660e01b8152600401611f43939291906139fb565b600060405180830381600087803b158015611f5d57600080fd5b505af1158015611f71573d6000803e3d6000fd5b50505050600073ffffffffffffffffffffffffffffffffffffffff168260a0015173ffffffffffffffffffffffffffffffffffffffff16146120fe57600460009054906101000a900473ffffffffffffffffffffffffffffffffffffffff1673ffffffffffffffffffffffffffffffffffffffff1663095ea7b33084608001516040518363ffffffff1660e01b815260040161200e929190613979565b6020604051808303816000875af115801561202d573d6000803e3d6000fd5b505050506040513d601f19601f8201168201806040525081019061205191906139ce565b50600460009054906101000a900473ffffffffffffffffffffffffffffffffffffffff1673ffffffffffffffffffffffffffffffffffffffff166323b872dd308460a0015185608001516040518463ffffffff1660e01b81526004016120b9939291906139fb565b6020604051808303816000875af11580156120d8573d6000803e3d6000fd5b505050506040513d601f19601f820116820180604052508101906120fc91906139ce565b505b60016006600088815260200190815260200160002060050160146101000a81548160ff0219169083151502179055507f2809c7e17bf978fbc7194c0a694b638c4215e9140cacc6c38ca36010b45697df8660405161215c919061334a565b60405180910390a1505060008060146101000a81548160ff02191690831515021790555050505050565b60008054906101000a900473ffffffffffffffffffffffffffffffffffffffff1673ffffffffffffffffffffffffffffffffffffffff163373ffffffffffffffffffffffffffffffffffffffff1614612214576040517f08c379a000000000000000000000000000000000000000000000000000000000815260040161220b9061371b565b60405180910390fd5b6000600560008373ffffffffffffffffffffffffffffffffffffffff1673ffffffffffffffffffffffffffffffffffffffff16815260200190815260200160002060006101000a81548160ff02191690831515021790555050565b60015481565b8060016000600660008481526020019081526020016000206040518060e00160405290816000820160009054906101000a900473ffffffffffffffffffffffffffffffffffffffff1673ffffffffffffffffffffffffffffffffffffffff1673ffffffffffffffffffffffffffffffffffffffff1681526020016001820160009054906101000a900473ffffffffffffffffffffffffffffffffffffffff1673ffffffffffffffffffffffffffffffffffffffff1673ffffffffffffffffffffffffffffffffffffffff1681526020016002820154815260200160038201548152602001600482015481526020016005820160009054906101000a900473ffffffffffffffffffffffffffffffffffffffff1673ffffffffffffffffffffffffffffffffffffffff1673ffffffffffffffffffffffffffffffffffffffff1681526020016005820160149054906101000a900460ff1615151515815250509050600073ffffffffffffffffffffffffffffffffffffffff16816000015173ffffffffffffffffffffffffffffffffffffffff161415801561241857508060c00151155b612457576040517f08c379a000000000000000000000000000000000000000000000000000000000815260040161244e906133f8565b60405180910390fd5b81158061249357503373ffffffffffffffffffffffffffffffffffffffff16816000015173ffffffffffffffffffffffffffffffffffffffff16145b6124d2576040517f08c379a00000000000000000000000000000000000000000000000000000000081526004016124c990613464565b60405180910390fd5b6000600660008681526020019081526020016000206040518060e00160405290816000820160009054906101000a900473ffffffffffffffffffffffffffffffffffffffff1673ffffffffffffffffffffffffffffffffffffffff1673ffffffffffffffffffffffffffffffffffffffff1681526020016001820160009054906101000a900473ffffffffffffffffffffffffffffffffffffffff1673ffffffffffffffffffffffffffffffffffffffff1673ffffffffffffffffffffffffffffffffffffffff1681526020016002820154815260200160038201548152602001600482015481526020016005820160009054906101000a900473ffffffffffffffffffffffffffffffffffffffff1673ffffffffffffffffffffffffffffffffffffffff1673ffffffffffffffffffffffffffffffffffffffff1681526020016005820160149054906101000a900460ff1615151515815250509050600073ffffffffffffffffffffffffffffffffffffffff168160a0015173ffffffffffffffffffffffffffffffffffffffff16036126a2576040517f08c379a000000000000000000000000000000000000000000000000000000000815260040161269990613f69565b60405180910390fd5b6000816020015190508073ffffffffffffffffffffffffffffffffffffffff166323b872dd308460a0015185604001516040518463ffffffff1660e01b81526004016126f0939291906139fb565b600060405180830381600087803b15801561270a57600080fd5b505af115801561271e573d6000803e3d6000fd5b50505050600061273183608001516130e4565b905080600260008282546127459190613f89565b9250508190555082608001518110156128b657600081846080015161276a9190613af3565b9050600460009054906101000a900473ffffffffffffffffffffffffffffffffffffffff1673ffffffffffffffffffffffffffffffffffffffff1663095ea7b330836040518363ffffffff1660e01b81526004016127c9929190613979565b6020604051808303816000875af11580156127e8573d6000803e3d6000fd5b505050506040513d601f19601f8201168201806040525081019061280c91906139ce565b50600460009054906101000a900473ffffffffffffffffffffffffffffffffffffffff1673ffffffffffffffffffffffffffffffffffffffff166323b872dd308660000151846040518463ffffffff1660e01b8152600401612870939291906139fb565b6020604051808303816000875af115801561288f573d6000803e3d6000fd5b505050506040513d601f19601f820116820180604052508101906128b391906139ce565b50505b60016006600089815260200190815260200160002060050160146101000a81548160ff0219169083151502179055507f45806e512b1f4f10e33e8b3cb64d1d11d998d8c554a95e0841fc1c701278bd5d87604051612914919061334a565b60405180910390a150505050505050565b80600080600660008481526020019081526020016000206040518060e00160405290816000820160009054906101000a900473ffffffffffffffffffffffffffffffffffffffff1673ffffffffffffffffffffffffffffffffffffffff1673ffffffffffffffffffffffffffffffffffffffff1681526020016001820160009054906101000a900473ffffffffffffffffffffffffffffffffffffffff1673ffffffffffffffffffffffffffffffffffffffff1673ffffffffffffffffffffffffffffffffffffffff1681526020016002820154815260200160038201548152602001600482015481526020016005820160009054906101000a900473ffffffffffffffffffffffffffffffffffffffff1673ffffffffffffffffffffffffffffffffffffffff1673ffffffffffffffffffffffffffffffffffffffff1681526020016005820160149054906101000a900460ff1615151515815250509050600073ffffffffffffffffffffffffffffffffffffffff16816000015173ffffffffffffffffffffffffffffffffffffffff1614158015612ac757508060c00151155b612b06576040517f08c379a0000000000000000000000000000000000000000000000000000000008152600401612afd906133f8565b60405180910390fd5b811580612b4257503373ffffffffffffffffffffffffffffffffffffffff16816000015173ffffffffffffffffffffffffffffffffffffffff16145b612b81576040517f08c379a0000000000000000000000000000000000000000000000000000000008152600401612b7890613464565b60405180910390fd5b600060149054906101000a900460ff1615612bd1576040517f08c379a0000000000000000000000000000000000000000000000000000000008152600401612bc890613787565b60405180910390fd5b6001600060146101000a81548160ff0219169083151502179055506000600660008681526020019081526020016000206040518060e00160405290816000820160009054906101000a900473ffffffffffffffffffffffffffffffffffffffff1673ffffffffffffffffffffffffffffffffffffffff1673ffffffffffffffffffffffffffffffffffffffff1681526020016001820160009054906101000a900473ffffffffffffffffffffffffffffffffffffffff1673ffffffffffffffffffffffffffffffffffffffff1673ffffffffffffffffffffffffffffffffffffffff1681526020016002820154815260200160038201548152602001600482015481526020016005820160009054906101000a900473ffffffffffffffffffffffffffffffffffffffff1673ffffffffffffffffffffffffffffffffffffffff1673ffffffffffffffffffffffffffffffffffffffff1681526020016005820160149054906101000a900460ff16151515158152505090504281606001511115612d90576040517f08c379a0000000000000000000000000000000000000000000000000000000008152600401612d8790614009565b60405180910390fd5b600073ffffffffffffffffffffffffffffffffffffffff168160a0015173ffffffffffffffffffffffffffffffffffffffff1603612e03576040517f08c379a0000000000000000000000000000000000000000000000000000000008152600401612dfa9061409b565b60405180910390fd5b6000816020015190508073ffffffffffffffffffffffffffffffffffffffff166323b872dd308460a0015185604001516040518463ffffffff1660e01b8152600401612e51939291906139fb565b600060405180830381600087803b158015612e6b57600080fd5b505af1158015612e7f573d6000803e3d6000fd5b505050506000612e9283608001516130e4565b90508060026000828254612ea69190613f89565b925050819055508260800151811015613017576000818460800151612ecb9190613af3565b9050600460009054906101000a900473ffffffffffffffffffffffffffffffffffffffff1673ffffffffffffffffffffffffffffffffffffffff1663095ea7b330836040518363ffffffff1660e01b8152600401612f2a929190613979565b6020604051808303816000875af1158015612f49573d6000803e3d6000fd5b505050506040513d601f19601f82011682018060405250810190612f6d91906139ce565b50600460009054906101000a900473ffffffffffffffffffffffffffffffffffffffff1673ffffffffffffffffffffffffffffffffffffffff166323b872dd308660000151846040518463ffffffff1660e01b8152600401612fd1939291906139fb565b6020604051808303816000875af1158015612ff0573d6000803e3d6000fd5b505050506040513d601f19601f8201168201806040525081019061301491906139ce565b50505b60016006600089815260200190815260200160002060050160146101000a81548160ff0219169083151502179055507f5d9121d0d49467544ab0278e267daa7661304e0bd2994dbbc9d2922b58133c6087604051613075919061334a565b60405180910390a150505060008060146101000a81548160ff02191690831515021790555050505050565b60008054906101000a900473ffffffffffffffffffffffffffffffffffffffff1681565b60056020528060005260406000206000915054906101000a900460ff1681565b6000612710600154836130f791906140bb565b613101919061412c565b9050919050565b600080fd5b6000819050919050565b6131208161310d565b811461312b57600080fd5b50565b60008135905061313d81613117565b92915050565b6000806040838503121561315a57613159613108565b5b60006131688582860161312e565b92505060206131798582860161312e565b9150509250929050565b600073ffffffffffffffffffffffffffffffffffffffff82169050919050565b60006131ae82613183565b9050919050565b6131be816131a3565b81146131c957600080fd5b50565b6000813590506131db816131b5565b92915050565b6000602082840312156131f7576131f6613108565b5b6000613205848285016131cc565b91505092915050565b60006020828403121561322457613223613108565b5b60006132328482850161312e565b91505092915050565b613244816131a3565b82525050565b6132538161310d565b82525050565b60008115159050919050565b61326e81613259565b82525050565b600060e082019050613289600083018a61323b565b613296602083018961323b565b6132a3604083018861324a565b6132b0606083018761324a565b6132bd608083018661324a565b6132ca60a083018561323b565b6132d760c0830184613265565b98975050505050505050565b600080600080608085870312156132fd576132fc613108565b5b600061330b878288016131cc565b945050602061331c8782880161312e565b935050604061332d8782880161312e565b925050606061333e8782880161312e565b91505092959194509250565b600060208201905061335f600083018461324a565b92915050565b600060208201905061337a600083018461323b565b92915050565b60006020820190506133956000830184613265565b92915050565b600082825260208201905092915050565b7f41756374696f6e206973206e6f742076616c6964000000000000000000000000600082015250565b60006133e260148361339b565b91506133ed826133ac565b602082019050919050565b60006020820190508181036000830152613411816133d5565b9050919050565b7f596f7520617265206e6f74207468652073656c6c657200000000000000000000600082015250565b600061344e60168361339b565b915061345982613418565b602082019050919050565b6000602082019050818103600083015261347d81613441565b9050919050565b7f5072696365206d7573742062652067726561746572207468616e203000000000600082015250565b60006134ba601c8361339b565b91506134c582613484565b602082019050919050565b600060208201905081810360008301526134e9816134ad565b9050919050565b7f43616e6e6f74206c6f776572207072696365206f6e636520626964732068617660008201527f6520737461727465640000000000000000000000000000000000000000000000602082015250565b600061354c60298361339b565b9150613557826134f0565b604082019050919050565b6000602082019050818103600083015261357b8161353f565b9050919050565b7f43616e6e6f74206c6f776572207072696365206f6e63652061756374696f6e2060008201527f68617320656e6465640000000000000000000000000000000000000000000000602082015250565b60006135de60298361339b565b91506135e982613582565b604082019050919050565b6000602082019050818103600083015261360d816135d1565b9050919050565b7f4e6577207374617274696e67207072696365206d757374206265206c6f77657260008201527f207468616e2063757272656e7420707269636500000000000000000000000000602082015250565b600061367060338361339b565b915061367b82613614565b604082019050919050565b6000602082019050818103600083015261369f81613663565b9050919050565b60006040820190506136bb600083018561324a565b6136c8602083018461324a565b9392505050565b7f496e73756666696369656e74207065726d697373696f6e730000000000000000600082015250565b600061370560188361339b565b9150613710826136cf565b602082019050919050565b60006020820190508181036000830152613734816136f8565b9050919050565b7f4e6f2072652d656e747279000000000000000000000000000000000000000000600082015250565b6000613771600b8361339b565b915061377c8261373b565b602082019050919050565b600060208201905081810360008301526137a081613764565b9050919050565b7f43616e6e6f7420626964206f6e2061756374696f6e207468617420686173206560008201527f6e64656400000000000000000000000000000000000000000000000000000000602082015250565b600061380360248361339b565b915061380e826137a7565b604082019050919050565b60006020820190508181036000830152613832816137f6565b9050919050565b60008151905061384881613117565b92915050565b60006020828403121561386457613863613108565b5b600061387284828501613839565b91505092915050565b7f596f7520646f206e6f74206861766520656e6f7567682041554320746f20706c60008201527f6163652074686973206269640000000000000000000000000000000000000000602082015250565b60006138d7602c8361339b565b91506138e28261387b565b604082019050919050565b60006020820190508181036000830152613906816138ca565b9050919050565b7f42696420697320746f6f206c6f77000000000000000000000000000000000000600082015250565b6000613943600e8361339b565b915061394e8261390d565b602082019050919050565b6000602082019050818103600083015261397281613936565b9050919050565b600060408201905061398e600083018561323b565b61399b602083018461324a565b9392505050565b6139ab81613259565b81146139b657600080fd5b50565b6000815190506139c8816139a2565b92915050565b6000602082840312156139e4576139e3613108565b5b60006139f2848285016139b9565b91505092915050565b6000606082019050613a10600083018661323b565b613a1d602083018561323b565b613a2a604083018461324a565b949350505050565b7f496e73756666696369656e742042616c616e636520746f20776974686472617760008201527f2073706563696669656420616d6f756e74000000000000000000000000000000602082015250565b6000613a8e60318361339b565b9150613a9982613a32565b604082019050919050565b60006020820190508181036000830152613abd81613a81565b9050919050565b7f4e487b7100000000000000000000000000000000000000000000000000000000600052601160045260246000fd5b6000613afe8261310d565b9150613b098361310d565b9250828203905081811115613b2157613b20613ac4565b5b92915050565b600081519050613b36816131b5565b92915050565b600060208284031215613b5257613b51613108565b5b6000613b6084828501613b27565b91505092915050565b7f43616e6e6f742061756374696f6e206974656d20796f7520646f206e6f74206f60008201527f776e210000000000000000000000000000000000000000000000000000000000602082015250565b6000613bc560238361339b565b9150613bd082613b69565b604082019050919050565b60006020820190508181036000830152613bf481613bb8565b9050919050565b7f436f6e7472616374206973206e6f7420617070726f76656420746f207472616e60008201527f73666572204e4654000000000000000000000000000000000000000000000000602082015250565b6000613c5760288361339b565b9150613c6282613bfb565b604082019050919050565b60006020820190508181036000830152613c8681613c4a565b9050919050565b7f5374617274696e67207072696365206d757374206265203e2030000000000000600082015250565b6000613cc3601a8361339b565b9150613cce82613c8d565b602082019050919050565b60006020820190508181036000830152613cf281613cb6565b9050919050565b7f456e642074696d65206d75737420626520696e20746865206675747572650000600082015250565b6000613d2f601e8361339b565b9150613d3a82613cf9565b602082019050919050565b60006020820190508181036000830152613d5e81613d22565b9050919050565b6000613d708261310d565b91507fffffffffffffffffffffffffffffffffffffffffffffffffffffffffffffffff8203613da257613da1613ac4565b5b600182019050919050565b7f466565206d75737420626520706f73697469766520616e642063616e6e6f742060008201527f6578636565642031302c30303020425000000000000000000000000000000000602082015250565b6000613e0960308361339b565b9150613e1482613dad565b604082019050919050565b60006020820190508181036000830152613e3881613dfc565b9050919050565b7f43616e6e6f742063616e63656c2061756374696f6e206966206974206861732060008201527f616c726561647920656e64656400000000000000000000000000000000000000602082015250565b6000613e9b602d8361339b565b9150613ea682613e3f565b604082019050919050565b60006020820190508181036000830152613eca81613e8e565b9050919050565b7f4e6f20626964732068617665206265656e20706c616365642c2063616e6e6f7460008201527f20656e642e20596f75206d61792063616e63656c207468652061756374696f6e60208201527f20696e7374656164000000000000000000000000000000000000000000000000604082015250565b6000613f5360488361339b565b9150613f5e82613ed1565b606082019050919050565b60006020820190508181036000830152613f8281613f46565b9050919050565b6000613f948261310d565b9150613f9f8361310d565b9250828201905080821115613fb757613fb6613ac4565b5b92915050565b7f41756374696f6e206973207374696c6c2072756e6e696e670000000000000000600082015250565b6000613ff360188361339b565b9150613ffe82613fbd565b602082019050919050565b6000602082019050818103600083015261402281613fe6565b9050919050565b7f4e6f20626964646572206f6e20746869732061756374696f6e2e204e6f74686960008201527f6e6720746f20636c61696d000000000000000000000000000000000000000000602082015250565b6000614085602b8361339b565b915061409082614029565b604082019050919050565b600060208201905081810360008301526140b481614078565b9050919050565b60006140c68261310d565b91506140d18361310d565b92508282026140df8161310d565b915082820484148315176140f6576140f5613ac4565b5b5092915050565b7f4e487b7100000000000000000000000000000000000000000000000000000000600052601260045260246000fd5b60006141378261310d565b91506141428361310d565b925082614152576141516140fd565b5b82820490509291505056fea26469706673582212208d91b2ff8f21c6fe3a92d0bfaaf42457949f2e5556131515024e45422b8877d564736f6c63430008140033",
  "linkReferences": {},
  "deployedLinkReferences": {}
}