{
  "_format": "hh-sol-artifact-1",
  "contractName": "AuctionHouseItem",
  "sourceName": "contracts/AuctionHouseItem.sol",
  "abi": [
    {
      "inputs": [
        {
          "internalType": "string",
          "name": "name_",
          "type": "string"
        },
        {
          "internalType": "string",
          "name": "symbol_",
          "type": "string"
        }
      ],
      "stateMutability": "nonpayable",
      "type": "constructor"
    },
    {
      "inputs": [
        {
          "internalType": "address",
          "name": "sender",
          "type": "address"
        },
        {
          "internalType": "uint256",
          "name": "tokenId",
          "type": "uint256"
        },
        {
          "internalType": "address",
          "name": "owner",
          "type": "address"
        }
      ],
      "name": "ERC721IncorrectOwner",
      "type": "error"
    },
    {
      "inputs": [
        {
          "internalType": "address",
          "name": "operator",
          "type": "address"
        },
        {
          "internalType": "uint256",
          "name": "tokenId",
          "type": "uint256"
        }
      ],
      "name": "ERC721InsufficientApproval",
      "type": "error"
    },
    {
      "inputs": [
        {
          "internalType": "address",
          "name": "approver",
          "type": "address"
        }
      ],
      "name": "ERC721InvalidApprover",
      "type": "error"
    },
    {
      "inputs": [
        {
          "internalType": "address",
          "name": "operator",
          "type": "address"
        }
      ],
      "name": "ERC721InvalidOperator",
      "type": "error"
    },
    {
      "inputs": [
        {
          "internalType": "address",
          "name": "owner",
          "type": "address"
        }
      ],
      "name": "ERC721InvalidOwner",
      "type": "error"
    },
    {
      "inputs": [
        {
          "internalType": "address",
          "name": "receiver",
          "type": "address"
        }
      ],
      "name": "ERC721InvalidReceiver",
      "type": "error"
    },
    {
      "inputs": [
        {
          "internalType": "address",
          "name": "sender",
          "type": "address"
        }
      ],
      "name": "ERC721InvalidSender",
      "type": "error"
    },
    {
      "inputs": [
        {
          "internalType": "uint256",
          "name": "tokenId",
          "type": "uint256"
        }
      ],
      "name": "ERC721NonexistentToken",
      "type": "error"
    },
    {
      "anonymous": false,
      "inputs": [
        {
          "indexed": true,
          "internalType": "address",
          "name": "owner",
          "type": "address"
        },
        {
          "indexed": true,
          "internalType": "address",
          "name": "approved",
          "type": "address"
        },
        {
          "indexed": true,
          "internalType": "uint256",
          "name": "tokenId",
          "type": "uint256"
        }
      ],
      "name": "Approval",
      "type": "event"
    },
    {
      "anonymous": false,
      "inputs": [
        {
          "indexed": true,
          "internalType": "address",
          "name": "owner",
          "type": "address"
        },
        {
          "indexed": true,
          "internalType": "address",
          "name": "operator",
          "type": "address"
        },
        {
          "indexed": false,
          "internalType": "bool",
          "name": "approved",
          "type": "bool"
        }
      ],
      "name": "ApprovalForAll",
      "type": "event"
    },
    {
      "anonymous": false,
      "inputs": [
        {
          "indexed": false,
          "internalType": "uint256",
          "name": "_fromTokenId",
          "type": "uint256"
        },
        {
          "indexed": false,
          "internalType": "uint256",
          "name": "_toTokenId",
          "type": "uint256"
        }
      ],
      "name": "BatchMetadataUpdate",
      "type": "event"
    },
    {
      "anonymous": false,
      "inputs": [
        {
          "indexed": false,
          "internalType": "uint256",
          "name": "_tokenId",
          "type": "uint256"
        }
      ],
      "name": "MetadataUpdate",
      "type": "event"
    },
    {
      "anonymous": false,
      "inputs": [
        {
          "indexed": true,
          "internalType": "address",
          "name": "from",
          "type": "address"
        },
        {
          "indexed": true,
          "internalType": "address",
          "name": "to",
          "type": "address"
        },
        {
          "indexed": true,
          "internalType": "uint256",
          "name": "tokenId",
          "type": "uint256"
        }
      ],
      "name": "Transfer",
      "type": "event"
    },
    {
      "inputs": [
        {
          "internalType": "address",
          "name": "to",
          "type": "address"
        },
        {
          "internalType": "uint256",
          "name": "tokenId",
          "type": "uint256"
        }
      ],
      "name": "approve",
      "outputs": [],
      "stateMutability": "nonpayable",
      "type": "function"
    },
    {
      "inputs": [
        {
          "internalType": "address",
          "name": "owner",
          "type": "address"
        }
      ],
      "name": "balanceOf",
      "outputs": [
        {
          "internalType": "uint256",
          "name": "",
          "type": "uint256"
        }
      ],
      "stateMutability": "view",
      "type": "function"
    },
    {
      "inputs": [
        {
          "internalType": "string[]",
          "name": "uri",
          "type": "string[]"
        }
      ],
      "name": "bulkMint",
      "outputs": [],
      "stateMutability": "nonpayable",
      "type": "function"
    },
    {
      "inputs": [
        {
          "internalType": "uint256",
          "name": "tokenId",
          "type": "uint256"
        }
      ],
      "name": "getApproved",
      "outputs": [
        {
          "internalType": "address",
          "name": "",
          "type": "address"
        }
      ],
      "stateMutability": "view",
      "type": "function"
    },
    {
      "inputs": [
        {
          "internalType": "address",
          "name": "owner",
          "type": "address"
        },
        {
          "internalType": "address",
          "name": "operator",
          "type": "address"
        }
      ],
      "name": "isApprovedForAll",
      "outputs": [
        {
          "internalType": "bool",
          "name": "",
          "type": "bool"
        }
      ],
      "stateMutability": "view",
      "type": "function"
    },
    {
      "inputs": [],
      "name": "name",
      "outputs": [
        {
          "internalType": "string",
          "name": "",
          "type": "string"
        }
      ],
      "stateMutability": "view",
      "type": "function"
    },
    {
      "inputs": [
        {
          "internalType": "uint256",
          "name": "tokenId",
          "type": "uint256"
        }
      ],
      "name": "ownerOf",
      "outputs": [
        {
          "internalType": "address",
          "name": "",
          "type": "address"
        }
      ],
      "stateMutability": "view",
      "type": "function"
    },
    {
      "inputs": [
        {
          "internalType": "string",
          "name": "uri",
          "type": "string"
        }
      ],
      "name": "safeMint",
      "outputs": [],
      "stateMutability": "nonpayable",
      "type": "function"
    },
    {
      "inputs": [
        {
          "internalType": "address",
          "name": "from",
          "type": "address"
        },
        {
          "internalType": "address",
          "name": "to",
          "type": "address"
        },
        {
          "internalType": "uint256",
          "name": "tokenId",
          "type": "uint256"
        }
      ],
      "name": "safeTransferFrom",
      "outputs": [],
      "stateMutability": "nonpayable",
      "type": "function"
    },
    {
      "inputs": [
        {
          "internalType": "address",
          "name": "from",
          "type": "address"
        },
        {
          "internalType": "address",
          "name": "to",
          "type": "address"
        },
        {
          "internalType": "uint256",
          "name": "tokenId",
          "type": "uint256"
        },
        {
          "internalType": "bytes",
          "name": "data",
          "type": "bytes"
        }
      ],
      "name": "safeTransferFrom",
      "outputs": [],
      "stateMutability": "nonpayable",
      "type": "function"
    },
    {
      "inputs": [
        {
          "internalType": "address",
          "name": "operator",
          "type": "address"
        },
        {
          "internalType": "bool",
          "name": "approved",
          "type": "bool"
        }
      ],
      "name": "setApprovalForAll",
      "outputs": [],
      "stateMutability": "nonpayable",
      "type": "function"
    },
    {
      "inputs": [
        {
          "internalType": "bytes4",
          "name": "interfaceId",
          "type": "bytes4"
        }
      ],
      "name": "supportsInterface",
      "outputs": [
        {
          "internalType": "bool",
          "name": "",
          "type": "bool"
        }
      ],
      "stateMutability": "view",
      "type": "function"
    },
    {
      "inputs": [],
      "name": "symbol",
      "outputs": [
        {
          "internalType": "string",
          "name": "",
          "type": "string"
        }
      ],
      "stateMutability": "view",
      "type": "function"
    },
    {
      "inputs": [
        {
          "internalType": "uint256",
          "name": "tokenId",
          "type": "uint256"
        }
      ],
      "name": "tokenURI",
      "outputs": [
        {
          "internalType": "string",
          "name": "",
          "type": "string"
        }
      ],
      "stateMutability": "view",
      "type": "function"
    },
    {
      "inputs": [
        {
          "internalType": "address",
          "name": "from",
          "type": "address"
        },
        {
          "internalType": "address",
          "name": "to",
          "type": "address"
        },
        {
          "internalType": "uint256",
          "name": "tokenId",
          "type": "uint256"
        }
      ],
      "name": "transferFrom",
      "outputs": [],
      "stateMutability": "nonpayable",
      "type": "function"
    }
  ],
  "bytecode": "0x60806040523480156200001157600080fd5b5060405162002b7838038062002b788339818101604052810190620000379190620001fa565b818181600090816200004a9190620004ca565b5080600190816200005c9190620004ca565b5050505050620005b1565b6000604051905090565b600080fd5b600080fd5b600080fd5b600080fd5b6000601f19601f8301169050919050565b7f4e487b7100000000000000000000000000000000000000000000000000000000600052604160045260246000fd5b620000d08262000085565b810181811067ffffffffffffffff82111715620000f257620000f162000096565b5b80604052505050565b60006200010762000067565b9050620001158282620000c5565b919050565b600067ffffffffffffffff82111562000138576200013762000096565b5b620001438262000085565b9050602081019050919050565b60005b838110156200017057808201518184015260208101905062000153565b60008484015250505050565b6000620001936200018d846200011a565b620000fb565b905082815260208101848484011115620001b257620001b162000080565b5b620001bf84828562000150565b509392505050565b600082601f830112620001df57620001de6200007b565b5b8151620001f18482602086016200017c565b91505092915050565b6000806040838503121562000214576200021362000071565b5b600083015167ffffffffffffffff81111562000235576200023462000076565b5b6200024385828601620001c7565b925050602083015167ffffffffffffffff81111562000267576200026662000076565b5b6200027585828601620001c7565b9150509250929050565b600081519050919050565b7f4e487b7100000000000000000000000000000000000000000000000000000000600052602260045260246000fd5b60006002820490506001821680620002d257607f821691505b602082108103620002e857620002e76200028a565b5b50919050565b60008190508160005260206000209050919050565b60006020601f8301049050919050565b600082821b905092915050565b600060088302620003527fffffffffffffffffffffffffffffffffffffffffffffffffffffffffffffffff8262000313565b6200035e868362000313565b95508019841693508086168417925050509392505050565b6000819050919050565b6000819050919050565b6000620003ab620003a56200039f8462000376565b62000380565b62000376565b9050919050565b6000819050919050565b620003c7836200038a565b620003df620003d682620003b2565b84845462000320565b825550505050565b600090565b620003f6620003e7565b62000403818484620003bc565b505050565b5b818110156200042b576200041f600082620003ec565b60018101905062000409565b5050565b601f8211156200047a576200044481620002ee565b6200044f8462000303565b810160208510156200045f578190505b620004776200046e8562000303565b83018262000408565b50505b505050565b600082821c905092915050565b60006200049f600019846008026200047f565b1980831691505092915050565b6000620004ba83836200048c565b9150826002028217905092915050565b620004d5826200027f565b67ffffffffffffffff811115620004f157620004f062000096565b5b620004fd8254620002b9565b6200050a8282856200042f565b600060209050601f8311600181146200054257600084156200052d578287015190505b620005398582620004ac565b865550620005a9565b601f1984166200055286620002ee565b60005b828110156200057c5784890151825560018201915060208501945060208101905062000555565b868310156200059c578489015162000598601f8916826200048c565b8355505b6001600288020188555050505b505050505050565b6125b780620005c16000396000f3fe608060405234801561001057600080fd5b50600436106100f55760003560e01c8063695850fb11610097578063a22cb46511610066578063a22cb46514610282578063b88d4fde1461029e578063c87b56dd146102ba578063e985e9c5146102ea576100f5565b8063695850fb146101fc57806370a08231146102185780637e3cdcb21461024857806395d89b4114610264576100f5565b8063095ea7b3116100d3578063095ea7b31461017857806323b872dd1461019457806342842e0e146101b05780636352211e146101cc576100f5565b806301ffc9a7146100fa57806306fdde031461012a578063081812fc14610148575b600080fd5b610114600480360381019061010f91906118c4565b61031a565b604051610121919061190c565b60405180910390f35b61013261032c565b60405161013f91906119b7565b60405180910390f35b610162600480360381019061015d9190611a0f565b6103be565b60405161016f9190611a7d565b60405180910390f35b610192600480360381019061018d9190611ac4565b6103da565b005b6101ae60048036038101906101a99190611b04565b6103f0565b005b6101ca60048036038101906101c59190611b04565b6104f2565b005b6101e660048036038101906101e19190611a0f565b610512565b6040516101f39190611a7d565b60405180910390f35b61021660048036038101906102119190611c8c565b610524565b005b610232600480360381019061022d9190611cd5565b610557565b60405161023f9190611d11565b60405180910390f35b610262600480360381019061025d9190611e12565b610611565b005b61026c610657565b60405161027991906119b7565b60405180910390f35b61029c60048036038101906102979190611e87565b6106e9565b005b6102b860048036038101906102b39190611f68565b6106ff565b005b6102d460048036038101906102cf9190611a0f565b61071c565b6040516102e191906119b7565b60405180910390f35b61030460048036038101906102ff9190611feb565b61072e565b604051610311919061190c565b60405180910390f35b6000610325826107c2565b9050919050565b60606000805461033b9061205a565b80601f01602080910402602001604051908101604052809291908181526020018280546103679061205a565b80156103b45780601f10610389576101008083540402835291602001916103b4565b820191906000526020600020905b81548152906001019060200180831161039757829003601f168201915b5050505050905090565b60006103c982610823565b506103d3826108ab565b9050919050565b6103ec82826103e76108e8565b6108f0565b5050565b600073ffffffffffffffffffffffffffffffffffffffff168273ffffffffffffffffffffffffffffffffffffffff16036104625760006040517f64a0ae920000000000000000000000000000000000000000000000000000000081526004016104599190611a7d565b60405180910390fd5b600061047683836104716108e8565b610902565b90508373ffffffffffffffffffffffffffffffffffffffff168173ffffffffffffffffffffffffffffffffffffffff16146104ec578382826040517f64283d7b0000000000000000000000000000000000000000000000000000000081526004016104e39392919061208b565b60405180910390fd5b50505050565b61050d838383604051806020016040528060008152506106ff565b505050565b600061051d82610823565b9050919050565b600060076000815480929190610539906120f1565b9190505590506105493382610b1c565b6105538183610b3a565b5050565b60008073ffffffffffffffffffffffffffffffffffffffff168273ffffffffffffffffffffffffffffffffffffffff16036105ca5760006040517f89c62b640000000000000000000000000000000000000000000000000000000081526004016105c19190611a7d565b60405180910390fd5b600360008373ffffffffffffffffffffffffffffffffffffffff1673ffffffffffffffffffffffffffffffffffffffff168152602001908152602001600020549050919050565b60005b81518110156106535761064082828151811061063357610632612139565b5b6020026020010151610524565b808061064b906120f1565b915050610614565b5050565b6060600180546106669061205a565b80601f01602080910402602001604051908101604052809291908181526020018280546106929061205a565b80156106df5780601f106106b4576101008083540402835291602001916106df565b820191906000526020600020905b8154815290600101906020018083116106c257829003601f168201915b5050505050905090565b6106fb6106f46108e8565b8383610b96565b5050565b61070a8484846103f0565b61071684848484610d05565b50505050565b606061072782610ebc565b9050919050565b6000600560008473ffffffffffffffffffffffffffffffffffffffff1673ffffffffffffffffffffffffffffffffffffffff16815260200190815260200160002060008373ffffffffffffffffffffffffffffffffffffffff1673ffffffffffffffffffffffffffffffffffffffff16815260200190815260200160002060009054906101000a900460ff16905092915050565b6000634906490660e01b7bffffffffffffffffffffffffffffffffffffffffffffffffffffffff1916827bffffffffffffffffffffffffffffffffffffffffffffffffffffffff1916148061081c575061081b82610fcf565b5b9050919050565b60008061082f836110b1565b9050600073ffffffffffffffffffffffffffffffffffffffff168173ffffffffffffffffffffffffffffffffffffffff16036108a257826040517f7e2732890000000000000000000000000000000000000000000000000000000081526004016108999190611d11565b60405180910390fd5b80915050919050565b60006004600083815260200190815260200160002060009054906101000a900473ffffffffffffffffffffffffffffffffffffffff169050919050565b600033905090565b6108fd83838360016110ee565b505050565b60008061090e846110b1565b9050600073ffffffffffffffffffffffffffffffffffffffff168373ffffffffffffffffffffffffffffffffffffffff16146109505761094f8184866112b3565b5b600073ffffffffffffffffffffffffffffffffffffffff168173ffffffffffffffffffffffffffffffffffffffff16146109e1576109926000856000806110ee565b6001600360008373ffffffffffffffffffffffffffffffffffffffff1673ffffffffffffffffffffffffffffffffffffffff168152602001908152602001600020600082825403925050819055505b600073ffffffffffffffffffffffffffffffffffffffff168573ffffffffffffffffffffffffffffffffffffffff1614610a64576001600360008773ffffffffffffffffffffffffffffffffffffffff1673ffffffffffffffffffffffffffffffffffffffff168152602001908152602001600020600082825401925050819055505b846002600086815260200190815260200160002060006101000a81548173ffffffffffffffffffffffffffffffffffffffff021916908373ffffffffffffffffffffffffffffffffffffffff160217905550838573ffffffffffffffffffffffffffffffffffffffff168273ffffffffffffffffffffffffffffffffffffffff167fddf252ad1be2c89b69c2b068fc378daa952ba7f163c4a11628f55a4df523b3ef60405160405180910390a4809150509392505050565b610b36828260405180602001604052806000815250611377565b5050565b80600660008481526020019081526020016000209081610b5a9190612314565b507ff8e1a15aba9398e019f0b49df1a4fde98ee17ae345cb5f6b5e2c27f5033e8ce782604051610b8a9190611d11565b60405180910390a15050565b600073ffffffffffffffffffffffffffffffffffffffff168273ffffffffffffffffffffffffffffffffffffffff1603610c0757816040517f5b08ba18000000000000000000000000000000000000000000000000000000008152600401610bfe9190611a7d565b60405180910390fd5b80600560008573ffffffffffffffffffffffffffffffffffffffff1673ffffffffffffffffffffffffffffffffffffffff16815260200190815260200160002060008473ffffffffffffffffffffffffffffffffffffffff1673ffffffffffffffffffffffffffffffffffffffff16815260200190815260200160002060006101000a81548160ff0219169083151502179055508173ffffffffffffffffffffffffffffffffffffffff168373ffffffffffffffffffffffffffffffffffffffff167f17307eab39ab6107e8899845ad3d59bd9653f200f220920489ca2b5937696c3183604051610cf8919061190c565b60405180910390a3505050565b60008373ffffffffffffffffffffffffffffffffffffffff163b1115610eb6578273ffffffffffffffffffffffffffffffffffffffff1663150b7a02610d496108e8565b8685856040518563ffffffff1660e01b8152600401610d6b949392919061243b565b6020604051808303816000875af1925050508015610da757506040513d601f19601f82011682018060405250810190610da4919061249c565b60015b610e2b573d8060008114610dd7576040519150601f19603f3d011682016040523d82523d6000602084013e610ddc565b606091505b506000815103610e2357836040517f64a0ae92000000000000000000000000000000000000000000000000000000008152600401610e1a9190611a7d565b60405180910390fd5b805181602001fd5b63150b7a0260e01b7bffffffffffffffffffffffffffffffffffffffffffffffffffffffff1916817bffffffffffffffffffffffffffffffffffffffffffffffffffffffff191614610eb457836040517f64a0ae92000000000000000000000000000000000000000000000000000000008152600401610eab9190611a7d565b60405180910390fd5b505b50505050565b6060610ec782610823565b506000600660008481526020019081526020016000208054610ee89061205a565b80601f0160208091040260200160405190810160405280929190818152602001828054610f149061205a565b8015610f615780601f10610f3657610100808354040283529160200191610f61565b820191906000526020600020905b815481529060010190602001808311610f4457829003601f168201915b505050505090506000610f72611393565b90506000815103610f87578192505050610fca565b600082511115610fbc578082604051602001610fa4929190612505565b60405160208183030381529060405292505050610fca565b610fc5846113aa565b925050505b919050565b60007f80ac58cd000000000000000000000000000000000000000000000000000000007bffffffffffffffffffffffffffffffffffffffffffffffffffffffff1916827bffffffffffffffffffffffffffffffffffffffffffffffffffffffff1916148061109a57507f5b5e139f000000000000000000000000000000000000000000000000000000007bffffffffffffffffffffffffffffffffffffffffffffffffffffffff1916827bffffffffffffffffffffffffffffffffffffffffffffffffffffffff1916145b806110aa57506110a982611413565b5b9050919050565b60006002600083815260200190815260200160002060009054906101000a900473ffffffffffffffffffffffffffffffffffffffff169050919050565b80806111275750600073ffffffffffffffffffffffffffffffffffffffff168273ffffffffffffffffffffffffffffffffffffffff1614155b1561125b57600061113784610823565b9050600073ffffffffffffffffffffffffffffffffffffffff168373ffffffffffffffffffffffffffffffffffffffff16141580156111a257508273ffffffffffffffffffffffffffffffffffffffff168173ffffffffffffffffffffffffffffffffffffffff1614155b80156111b557506111b3818461072e565b155b156111f757826040517fa9fbf51f0000000000000000000000000000000000000000000000000000000081526004016111ee9190611a7d565b60405180910390fd5b811561125957838573ffffffffffffffffffffffffffffffffffffffff168273ffffffffffffffffffffffffffffffffffffffff167f8c5be1e5ebec7d5bd14f71427d1e84f3dd0314c0f7b2291e5b200ac8c7c3b92560405160405180910390a45b505b836004600085815260200190815260200160002060006101000a81548173ffffffffffffffffffffffffffffffffffffffff021916908373ffffffffffffffffffffffffffffffffffffffff16021790555050505050565b6112be83838361147d565b61137257600073ffffffffffffffffffffffffffffffffffffffff168373ffffffffffffffffffffffffffffffffffffffff160361133357806040517f7e27328900000000000000000000000000000000000000000000000000000000815260040161132a9190611d11565b60405180910390fd5b81816040517f177e802f000000000000000000000000000000000000000000000000000000008152600401611369929190612529565b60405180910390fd5b505050565b611381838361153e565b61138e6000848484610d05565b505050565b606060405180602001604052806000815250905090565b60606113b582610823565b5060006113c0611393565b905060008151116113e0576040518060200160405280600081525061140b565b806113ea84611637565b6040516020016113fb929190612505565b6040516020818303038152906040525b915050919050565b60007f01ffc9a7000000000000000000000000000000000000000000000000000000007bffffffffffffffffffffffffffffffffffffffffffffffffffffffff1916827bffffffffffffffffffffffffffffffffffffffffffffffffffffffff1916149050919050565b60008073ffffffffffffffffffffffffffffffffffffffff168373ffffffffffffffffffffffffffffffffffffffff161415801561153557508273ffffffffffffffffffffffffffffffffffffffff168473ffffffffffffffffffffffffffffffffffffffff1614806114f657506114f5848461072e565b5b8061153457508273ffffffffffffffffffffffffffffffffffffffff1661151c836108ab565b73ffffffffffffffffffffffffffffffffffffffff16145b5b90509392505050565b600073ffffffffffffffffffffffffffffffffffffffff168273ffffffffffffffffffffffffffffffffffffffff16036115b05760006040517f64a0ae920000000000000000000000000000000000000000000000000000000081526004016115a79190611a7d565b60405180910390fd5b60006115be83836000610902565b9050600073ffffffffffffffffffffffffffffffffffffffff168173ffffffffffffffffffffffffffffffffffffffff16146116325760006040517f73c6ac6e0000000000000000000000000000000000000000000000000000000081526004016116299190611a7d565b60405180910390fd5b505050565b60606000600161164684611705565b01905060008167ffffffffffffffff81111561166557611664611b61565b5b6040519080825280601f01601f1916602001820160405280156116975781602001600182028036833780820191505090505b509050600082602001820190505b6001156116fa578080600190039150507f3031323334353637383961626364656600000000000000000000000000000000600a86061a8153600a85816116ee576116ed612552565b5b049450600085036116a5575b819350505050919050565b600080600090507a184f03e93ff9f4daa797ed6e38ed64bf6a1f0100000000000000008310611763577a184f03e93ff9f4daa797ed6e38ed64bf6a1f010000000000000000838161175957611758612552565b5b0492506040810190505b6d04ee2d6d415b85acef810000000083106117a0576d04ee2d6d415b85acef8100000000838161179657611795612552565b5b0492506020810190505b662386f26fc1000083106117cf57662386f26fc1000083816117c5576117c4612552565b5b0492506010810190505b6305f5e10083106117f8576305f5e10083816117ee576117ed612552565b5b0492506008810190505b612710831061181d57612710838161181357611812612552565b5b0492506004810190505b60648310611840576064838161183657611835612552565b5b0492506002810190505b600a831061184f576001810190505b80915050919050565b6000604051905090565b600080fd5b600080fd5b60007fffffffff0000000000000000000000000000000000000000000000000000000082169050919050565b6118a18161186c565b81146118ac57600080fd5b50565b6000813590506118be81611898565b92915050565b6000602082840312156118da576118d9611862565b5b60006118e8848285016118af565b91505092915050565b60008115159050919050565b611906816118f1565b82525050565b600060208201905061192160008301846118fd565b92915050565b600081519050919050565b600082825260208201905092915050565b60005b83811015611961578082015181840152602081019050611946565b60008484015250505050565b6000601f19601f8301169050919050565b600061198982611927565b6119938185611932565b93506119a3818560208601611943565b6119ac8161196d565b840191505092915050565b600060208201905081810360008301526119d1818461197e565b905092915050565b6000819050919050565b6119ec816119d9565b81146119f757600080fd5b50565b600081359050611a09816119e3565b92915050565b600060208284031215611a2557611a24611862565b5b6000611a33848285016119fa565b91505092915050565b600073ffffffffffffffffffffffffffffffffffffffff82169050919050565b6000611a6782611a3c565b9050919050565b611a7781611a5c565b82525050565b6000602082019050611a926000830184611a6e565b92915050565b611aa181611a5c565b8114611aac57600080fd5b50565b600081359050611abe81611a98565b92915050565b60008060408385031215611adb57611ada611862565b5b6000611ae985828601611aaf565b9250506020611afa858286016119fa565b9150509250929050565b600080600060608486031215611b1d57611b1c611862565b5b6000611b2b86828701611aaf565b9350506020611b3c86828701611aaf565b9250506040611b4d868287016119fa565b9150509250925092565b600080fd5b600080fd5b7f4e487b7100000000000000000000000000000000000000000000000000000000600052604160045260246000fd5b611b998261196d565b810181811067ffffffffffffffff82111715611bb857611bb7611b61565b5b80604052505050565b6000611bcb611858565b9050611bd78282611b90565b919050565b600067ffffffffffffffff821115611bf757611bf6611b61565b5b611c008261196d565b9050602081019050919050565b82818337600083830152505050565b6000611c2f611c2a84611bdc565b611bc1565b905082815260208101848484011115611c4b57611c4a611b5c565b5b611c56848285611c0d565b509392505050565b600082601f830112611c7357611c72611b57565b5b8135611c83848260208601611c1c565b91505092915050565b600060208284031215611ca257611ca1611862565b5b600082013567ffffffffffffffff811115611cc057611cbf611867565b5b611ccc84828501611c5e565b91505092915050565b600060208284031215611ceb57611cea611862565b5b6000611cf984828501611aaf565b91505092915050565b611d0b816119d9565b82525050565b6000602082019050611d266000830184611d02565b92915050565b600067ffffffffffffffff821115611d4757611d46611b61565b5b602082029050602081019050919050565b600080fd5b6000611d70611d6b84611d2c565b611bc1565b90508083825260208201905060208402830185811115611d9357611d92611d58565b5b835b81811015611dda57803567ffffffffffffffff811115611db857611db7611b57565b5b808601611dc58982611c5e565b85526020850194505050602081019050611d95565b5050509392505050565b600082601f830112611df957611df8611b57565b5b8135611e09848260208601611d5d565b91505092915050565b600060208284031215611e2857611e27611862565b5b600082013567ffffffffffffffff811115611e4657611e45611867565b5b611e5284828501611de4565b91505092915050565b611e64816118f1565b8114611e6f57600080fd5b50565b600081359050611e8181611e5b565b92915050565b60008060408385031215611e9e57611e9d611862565b5b6000611eac85828601611aaf565b9250506020611ebd85828601611e72565b9150509250929050565b600067ffffffffffffffff821115611ee257611ee1611b61565b5b611eeb8261196d565b9050602081019050919050565b6000611f0b611f0684611ec7565b611bc1565b905082815260208101848484011115611f2757611f26611b5c565b5b611f32848285611c0d565b509392505050565b600082601f830112611f4f57611f4e611b57565b5b8135611f5f848260208601611ef8565b91505092915050565b60008060008060808587031215611f8257611f81611862565b5b6000611f9087828801611aaf565b9450506020611fa187828801611aaf565b9350506040611fb2878288016119fa565b925050606085013567ffffffffffffffff811115611fd357611fd2611867565b5b611fdf87828801611f3a565b91505092959194509250565b6000806040838503121561200257612001611862565b5b600061201085828601611aaf565b925050602061202185828601611aaf565b9150509250929050565b7f4e487b7100000000000000000000000000000000000000000000000000000000600052602260045260246000fd5b6000600282049050600182168061207257607f821691505b6020821081036120855761208461202b565b5b50919050565b60006060820190506120a06000830186611a6e565b6120ad6020830185611d02565b6120ba6040830184611a6e565b949350505050565b7f4e487b7100000000000000000000000000000000000000000000000000000000600052601160045260246000fd5b60006120fc826119d9565b91507fffffffffffffffffffffffffffffffffffffffffffffffffffffffffffffffff820361212e5761212d6120c2565b5b600182019050919050565b7f4e487b7100000000000000000000000000000000000000000000000000000000600052603260045260246000fd5b60008190508160005260206000209050919050565b60006020601f8301049050919050565b600082821b905092915050565b6000600883026121ca7fffffffffffffffffffffffffffffffffffffffffffffffffffffffffffffffff8261218d565b6121d4868361218d565b95508019841693508086168417925050509392505050565b6000819050919050565b600061221161220c612207846119d9565b6121ec565b6119d9565b9050919050565b6000819050919050565b61222b836121f6565b61223f61223782612218565b84845461219a565b825550505050565b600090565b612254612247565b61225f818484612222565b505050565b5b818110156122835761227860008261224c565b600181019050612265565b5050565b601f8211156122c85761229981612168565b6122a28461217d565b810160208510156122b1578190505b6122c56122bd8561217d565b830182612264565b50505b505050565b600082821c905092915050565b60006122eb600019846008026122cd565b1980831691505092915050565b600061230483836122da565b9150826002028217905092915050565b61231d82611927565b67ffffffffffffffff81111561233657612335611b61565b5b612340825461205a565b61234b828285612287565b600060209050601f83116001811461237e576000841561236c578287015190505b61237685826122f8565b8655506123de565b601f19841661238c86612168565b60005b828110156123b45784890151825560018201915060208501945060208101905061238f565b868310156123d157848901516123cd601f8916826122da565b8355505b6001600288020188555050505b505050505050565b600081519050919050565b600082825260208201905092915050565b600061240d826123e6565b61241781856123f1565b9350612427818560208601611943565b6124308161196d565b840191505092915050565b60006080820190506124506000830187611a6e565b61245d6020830186611a6e565b61246a6040830185611d02565b818103606083015261247c8184612402565b905095945050505050565b60008151905061249681611898565b92915050565b6000602082840312156124b2576124b1611862565b5b60006124c084828501612487565b91505092915050565b600081905092915050565b60006124df82611927565b6124e981856124c9565b93506124f9818560208601611943565b80840191505092915050565b600061251182856124d4565b915061251d82846124d4565b91508190509392505050565b600060408201905061253e6000830185611a6e565b61254b6020830184611d02565b9392505050565b7f4e487b7100000000000000000000000000000000000000000000000000000000600052601260045260246000fdfea2646970667358221220955322577e2e05bc0760037f9487b5f5261389d428be291069737bbb58d22d0064736f6c63430008140033",
  "linkReferences": {},
  "deployedLinkReferences": {}
}